{
  "contractName": "Ticketing",
  "abi": [
    {
      "inputs": [
        {
          "internalType": "uint256",
          "name": "_ticketPrice",
          "type": "uint256"
        },
        {
          "internalType": "uint256",
          "name": "_totalTickets",
          "type": "uint256"
        }
      ],
      "payable": false,
      "stateMutability": "nonpayable",
      "type": "constructor"
    },
    {
      "constant": true,
      "inputs": [],
      "name": "organizer",
      "outputs": [
        {
          "internalType": "address",
          "name": "",
          "type": "address"
        }
      ],
      "payable": false,
      "stateMutability": "view",
      "type": "function"
    },
    {
      "constant": true,
      "inputs": [],
      "name": "ticketPrice",
      "outputs": [
        {
          "internalType": "uint256",
          "name": "",
          "type": "uint256"
        }
      ],
      "payable": false,
      "stateMutability": "view",
      "type": "function"
    },
    {
      "constant": true,
      "inputs": [
        {
          "internalType": "address",
          "name": "",
          "type": "address"
        }
      ],
      "name": "ticketsBought",
      "outputs": [
        {
          "internalType": "uint256",
          "name": "",
          "type": "uint256"
        }
      ],
      "payable": false,
      "stateMutability": "view",
      "type": "function"
    },
    {
      "constant": true,
      "inputs": [],
      "name": "ticketsSold",
      "outputs": [
        {
          "internalType": "uint256",
          "name": "",
          "type": "uint256"
        }
      ],
      "payable": false,
      "stateMutability": "view",
      "type": "function"
    },
    {
      "constant": true,
      "inputs": [],
      "name": "totalTickets",
      "outputs": [
        {
          "internalType": "uint256",
          "name": "",
          "type": "uint256"
        }
      ],
      "payable": false,
      "stateMutability": "view",
      "type": "function"
    },
    {
      "constant": false,
      "inputs": [
        {
          "internalType": "uint256",
          "name": "quantity",
          "type": "uint256"
        }
      ],
      "name": "buyTicket",
      "outputs": [],
      "payable": true,
      "stateMutability": "payable",
      "type": "function"
    },
    {
      "constant": false,
      "inputs": [],
      "name": "getRefund",
      "outputs": [],
      "payable": false,
      "stateMutability": "nonpayable",
      "type": "function"
    }
  ],
  "bytecode": "0x608060405234801561001057600080fd5b506040516103933803806103938339818101604052604081101561003357600080fd5b508051602090910151600080546001600160a01b0319163317815560019290925560025560035561032a806100696000396000f3fe6080604052600436106100705760003560e01c806384bd32641161004e57806384bd3264146100ec5780638f15024f1461011f578063b2d5ae4414610134578063dd11247e1461014957610070565b80631209b1f614610075578063612032651461009c57806367dd74ca146100cd575b600080fd5b34801561008157600080fd5b5061008a61015e565b60408051918252519081900360200190f35b3480156100a857600080fd5b506100b1610164565b604080516001600160a01b039092168252519081900360200190f35b6100ea600480360360208110156100e357600080fd5b5035610173565b005b3480156100f857600080fd5b5061008a6004803603602081101561010f57600080fd5b50356001600160a01b031661022f565b34801561012b57600080fd5b5061008a610241565b34801561014057600080fd5b506100ea610247565b34801561015557600080fd5b5061008a6102ef565b60015481565b6000546001600160a01b031681565b806001540234146101bf576040805162461bcd60e51b8152602060048201526011602482015270125b98dbdc9c9958dd081c185e5b595b9d607a1b604482015290519081900360640190fd5b6002548160035401111561020f576040805162461bcd60e51b81526020600482015260126024820152714e6f7420656e6f756768207469636b65747360701b604482015290519081900360640190fd5b600380548201905533600090815260046020526040902080549091019055565b60046020526000908152604090205481565b60035481565b33600090815260046020526040902054806102a0576040805162461bcd60e51b8152602060048201526014602482015273139bc81d1a58dad95d1cc81d1bc81c99599d5b9960621b604482015290519081900360640190fd5b33600081815260046020526040808220829055600380548590039055600154905190840280156108fc0292909190818181858888f193505050501580156102eb573d6000803e3d6000fd5b5050565b6002548156fea265627a7a72315820f9d8df4032b7b4feee77e5952e12730adfb62e2ef34e055ce3a0ab8e452ee25964736f6c63430005100032",
  "source": "// SPDX-License-Identifier: MIT\npragma solidity ^0.5.0;\n\ncontract Ticketing {\n    address public organizer;\n    uint public ticketPrice;\n    uint public totalTickets;\n    uint public ticketsSold;\n    mapping(address => uint) public ticketsBought;\n\n    constructor(uint _ticketPrice, uint _totalTickets) public {\n        organizer = msg.sender;\n        ticketPrice = _ticketPrice;\n        totalTickets = _totalTickets;\n        ticketsSold = 0;\n    }\n\n    function buyTicket(uint quantity) public payable {\n        require(msg.value == (ticketPrice * quantity), \"Incorrect payment\");\n        require(ticketsSold + quantity <= totalTickets, \"Not enough tickets\");\n\n        ticketsSold += quantity;\n        ticketsBought[msg.sender] += quantity;\n    }\n\n    function getRefund() public {\n        uint tickets = ticketsBought[msg.sender];\n        require(tickets > 0, \"No tickets to refund\");\n\n        ticketsBought[msg.sender] = 0;\n        ticketsSold -= tickets;\n        msg.sender.transfer(tickets * ticketPrice);\n    }\n}\n",
  "sourcePath": "/Users/mohammedfaiz/Desktop/Coding Stuff/Blockchain/SwiftPass/smart_contracts/contracts/Ticketing.sol",
  "compiler": {
    "name": "solc",
    "version": "0.5.16+commit.9c3226ce.Emscripten.clang"
  },
  "schemaVersion": "3.4.16",
  "updatedAt": "2024-01-05T07:09:44.699Z",
  "networkType": "ethereum",
  "devdoc": {
    "methods": {}
  },
  "userdoc": {
    "methods": {}
  }
}