{
  "contractName": "Hosting",
  "abi": [
    {
      "inputs": [],
      "payable": false,
      "stateMutability": "nonpayable",
      "type": "constructor"
    },
    {
      "anonymous": false,
      "inputs": [
        {
          "indexed": false,
          "internalType": "uint256",
          "name": "numberOfTickets",
          "type": "uint256"
        },
        {
          "indexed": false,
          "internalType": "uint256",
          "name": "ticketPrice",
          "type": "uint256"
        }
      ],
      "name": "EventHosted",
      "type": "event"
    },
    {
      "anonymous": false,
      "inputs": [
        {
          "indexed": false,
          "internalType": "uint256",
          "name": "ticketNumber",
          "type": "uint256"
        },
        {
          "indexed": false,
          "internalType": "address",
          "name": "buyer",
          "type": "address"
        }
      ],
      "name": "TicketSold",
      "type": "event"
    },
    {
      "constant": true,
      "inputs": [],
      "name": "numberOfTickets",
      "outputs": [
        {
          "internalType": "uint256",
          "name": "",
          "type": "uint256"
        }
      ],
      "payable": false,
      "stateMutability": "view",
      "type": "function"
    },
    {
      "constant": true,
      "inputs": [],
      "name": "owner",
      "outputs": [
        {
          "internalType": "address",
          "name": "",
          "type": "address"
        }
      ],
      "payable": false,
      "stateMutability": "view",
      "type": "function"
    },
    {
      "constant": true,
      "inputs": [
        {
          "internalType": "uint256",
          "name": "",
          "type": "uint256"
        }
      ],
      "name": "ticketOwners",
      "outputs": [
        {
          "internalType": "address",
          "name": "",
          "type": "address"
        }
      ],
      "payable": false,
      "stateMutability": "view",
      "type": "function"
    },
    {
      "constant": true,
      "inputs": [],
      "name": "ticketPrice",
      "outputs": [
        {
          "internalType": "uint256",
          "name": "",
          "type": "uint256"
        }
      ],
      "payable": false,
      "stateMutability": "view",
      "type": "function"
    },
    {
      "constant": false,
      "inputs": [
        {
          "internalType": "uint256",
          "name": "_numberOfTickets",
          "type": "uint256"
        },
        {
          "internalType": "uint256",
          "name": "_ticketPrice",
          "type": "uint256"
        }
      ],
      "name": "hostEvent",
      "outputs": [],
      "payable": false,
      "stateMutability": "nonpayable",
      "type": "function"
    },
    {
      "constant": false,
      "inputs": [
        {
          "internalType": "uint256",
          "name": "ticketNumber",
          "type": "uint256"
        },
        {
          "internalType": "uint256",
          "name": "num",
          "type": "uint256"
        }
      ],
      "name": "sellTicket",
      "outputs": [],
      "payable": true,
      "stateMutability": "payable",
      "type": "function"
    }
  ],
  "bytecode": "0x608060405234801561001057600080fd5b50600080546001600160a01b0319163317905561036e806100326000396000f3fe6080604052600436106100555760003560e01c80631209b1f61461005a5780632a6c4c141461008157806345745c10146100a65780638da5cb5b146100bb578063ce43f1e9146100ec578063eb2dbcf61461011c575b600080fd5b34801561006657600080fd5b5061006f610146565b60408051918252519081900360200190f35b6100a46004803603604081101561009757600080fd5b508035906020013561014c565b005b3480156100b257600080fd5b5061006f610261565b3480156100c757600080fd5b506100d0610267565b604080516001600160a01b039092168252519081900360200190f35b3480156100f857600080fd5b506100a46004803603604081101561010f57600080fd5b5080359060200135610276565b34801561012857600080fd5b506100d06004803603602081101561013f57600080fd5b503561031e565b60025481565b60025434146101a2576040805162461bcd60e51b815260206004820152601860248201527f496e636f7272656374207061796d656e7420616d6f756e740000000000000000604482015290519081900360640190fd5b6000828152600360205260409020546001600160a01b031615610202576040805162461bcd60e51b8152602060048201526013602482015272151a58dad95d08185b1c9958591e481cdbdb19606a1b604482015290519081900360640190fd5b60008281526003602090815260409182902080546001600160a01b0319163390811790915582518581529182015281517fe39135ae9a8f1caafd7e67a9dd98cef770246b0fe0178a0e41b622db0053499d929181900390910190a15050565b60015481565b6000546001600160a01b031681565b6000546001600160a01b031633146102d5576040805162461bcd60e51b815260206004820152601d60248201527f4f6e6c79206f7267616e697a65722063616e20686f7374206576656e74000000604482015290519081900360640190fd5b60018290556002819055604080518381526020810183905281517f0ef6ca60babc4209865be8ecce25de598496971251a3e62ecccd20e9366c680e929181900390910190a15050565b6003602052600090815260409020546001600160a01b03168156fea265627a7a7231582092df6204ef968a14f4cd3c2c121bd3d2e1cd7207c470efbbab4fbbc228bb14bb64736f6c63430005100032",
  "source": "pragma solidity ^0.5.0;\n\ncontract Hosting {\n    address public owner;\n    uint public numberOfTickets;\n    uint public ticketPrice;\n    mapping(uint => address) public ticketOwners;\n\n    event EventHosted(uint numberOfTickets, uint ticketPrice);\n    event TicketSold(uint ticketNumber, address buyer);\n\n    constructor() public {\n        owner = msg.sender;\n    }\n\n    function hostEvent(uint _numberOfTickets, uint _ticketPrice) public {\n        require(msg.sender == owner, \"Only organizer can host event\");\n        numberOfTickets = _numberOfTickets;\n        ticketPrice = _ticketPrice;\n        emit EventHosted(_numberOfTickets, _ticketPrice);\n    }\n\n    function sellTicket(uint ticketNumber, uint num) public payable {\n        require(msg.value == ticketPrice, \"Incorrect payment amount\");\n        require(ticketOwners[ticketNumber] == address(0), \"Ticket already sold\");\n        ticketOwners[ticketNumber] = msg.sender;\n        emit TicketSold(ticketNumber, msg.sender);\n    }\n}\n",
  "sourcePath": "/Users/mohammedfaiz/Desktop/Coding Stuff/Blockchain/SwiftPass/backend/smart_contracts/contracts/Hosting.sol",
  "compiler": {
    "name": "solc",
    "version": "0.5.16+commit.9c3226ce.Emscripten.clang"
  },
  "schemaVersion": "3.4.16",
  "updatedAt": "2024-01-10T10:09:00.063Z",
  "networkType": "ethereum",
  "devdoc": {
    "methods": {}
  },
  "userdoc": {
    "methods": {}
  }
}