{
  "contractName": "Hosting",
  "abi": [
    {
      "inputs": [],
      "payable": false,
      "stateMutability": "nonpayable",
      "type": "constructor"
    },
    {
      "constant": true,
      "inputs": [
        {
          "internalType": "uint256",
          "name": "",
          "type": "uint256"
        }
      ],
      "name": "events",
      "outputs": [
        {
          "internalType": "string",
          "name": "eventName",
          "type": "string"
        },
        {
          "internalType": "uint256",
          "name": "numberOfTickets",
          "type": "uint256"
        },
        {
          "internalType": "uint256",
          "name": "ticketPrice",
          "type": "uint256"
        },
        {
          "internalType": "address",
          "name": "xrplWallet",
          "type": "address"
        },
        {
          "internalType": "address",
          "name": "ethereumAddress",
          "type": "address"
        },
        {
          "internalType": "bool",
          "name": "isActive",
          "type": "bool"
        }
      ],
      "payable": false,
      "stateMutability": "view",
      "type": "function"
    },
    {
      "constant": true,
      "inputs": [],
      "name": "owner",
      "outputs": [
        {
          "internalType": "address",
          "name": "",
          "type": "address"
        }
      ],
      "payable": false,
      "stateMutability": "view",
      "type": "function"
    },
    {
      "constant": false,
      "inputs": [
        {
          "internalType": "string",
          "name": "_eventName",
          "type": "string"
        },
        {
          "internalType": "uint256",
          "name": "_numberOfTickets",
          "type": "uint256"
        },
        {
          "internalType": "uint256",
          "name": "_ticketPrice",
          "type": "uint256"
        },
        {
          "internalType": "address",
          "name": "_organiserXrplWallet",
          "type": "address"
        },
        {
          "internalType": "address",
          "name": "_organiserEthWallet",
          "type": "address"
        }
      ],
      "name": "createEvent",
      "outputs": [],
      "payable": false,
      "stateMutability": "nonpayable",
      "type": "function"
    },
    {
      "constant": true,
      "inputs": [],
      "name": "getEventCount",
      "outputs": [
        {
          "internalType": "uint256",
          "name": "",
          "type": "uint256"
        }
      ],
      "payable": false,
      "stateMutability": "view",
      "type": "function"
    },
    {
      "constant": true,
      "inputs": [
        {
          "internalType": "uint256",
          "name": "_eventId",
          "type": "uint256"
        }
      ],
      "name": "getEventDetails",
      "outputs": [
        {
          "internalType": "string",
          "name": "",
          "type": "string"
        },
        {
          "internalType": "uint256",
          "name": "",
          "type": "uint256"
        },
        {
          "internalType": "uint256",
          "name": "",
          "type": "uint256"
        },
        {
          "internalType": "address",
          "name": "",
          "type": "address"
        },
        {
          "internalType": "address",
          "name": "",
          "type": "address"
        },
        {
          "internalType": "bool",
          "name": "",
          "type": "bool"
        }
      ],
      "payable": false,
      "stateMutability": "view",
      "type": "function"
    },
    {
      "constant": false,
      "inputs": [
        {
          "internalType": "uint256",
          "name": "_eventId",
          "type": "uint256"
        },
        {
          "internalType": "uint256",
          "name": "_numberOfTickets",
          "type": "uint256"
        }
      ],
      "name": "sellTickets",
      "outputs": [],
      "payable": true,
      "stateMutability": "payable",
      "type": "function"
    }
  ],
  "bytecode": "0x608060405234801561001057600080fd5b50600080546001600160a01b03191633179055610a0f806100326000396000f3fe6080604052600436106100555760003560e01c80630b7914301461005a57806364780d261461012c5780638da5cb5b14610151578063d9e48f5c14610182578063ec38d5a0146101a9578063f6c594dd146101d3575b600080fd5b34801561006657600080fd5b506100846004803603602081101561007d57600080fd5b503561026d565b6040805160208082018890529181018690526001600160a01b0380861660608301528416608082015282151560a082015260c080825288519082015287519091829160e08301918a019080838360005b838110156100ec5781810151838201526020016100d4565b50505050905090810190601f1680156101195780820380516001836020036101000a031916815260200191505b5097505050505050505060405180910390f35b61014f6004803603604081101561014257600080fd5b508035906020013561034f565b005b34801561015d57600080fd5b5061016661055a565b604080516001600160a01b039092168252519081900360200190f35b34801561018e57600080fd5b50610197610569565b60408051918252519081900360200190f35b3480156101b557600080fd5b50610084600480360360208110156101cc57600080fd5b5035610570565b3480156101df57600080fd5b5061014f600480360360a08110156101f657600080fd5b81019060208101813564010000000081111561021157600080fd5b82018360208201111561022357600080fd5b8035906020019184600183028401116401000000008311171561024557600080fd5b91935091508035906020810135906001600160a01b0360408201358116916060013516610712565b6001818154811061027a57fe5b60009182526020918290206005919091020180546040805160026001841615610100026000190190931692909204601f8101859004850283018501909152808252919350918391908301828280156103135780601f106102e857610100808354040283529160200191610313565b820191906000526020600020905b8154815290600101906020018083116102f657829003601f168201915b50505050600183015460028401546003850154600490950154939491939092506001600160a01b0391821691811690600160a01b900460ff1686565b600154821061039c576040805162461bcd60e51b8152602060048201526014602482015273115d995b9d08191bd95cc81b9bdd08195e1a5cdd60621b604482015290519081900360640190fd5b6000600183815481106103ab57fe5b906000526020600020906005020190508060040160149054906101000a900460ff16610414576040805162461bcd60e51b81526020600482015260136024820152724576656e74206973206e6f742061637469766560681b604482015290519081900360640190fd5b600082116104535760405162461bcd60e51b815260040180806020018281038252602b8152602001806109b0602b913960400191505060405180910390fd5b80600101548211156104ac576040805162461bcd60e51b815260206004820152601c60248201527f4e6f7420656e6f756768207469636b65747320617661696c61626c6500000000604482015290519081900360640190fd5b806002015482023414610506576040805162461bcd60e51b815260206004820152601860248201527f496e636f7272656374207061796d656e7420616d6f756e740000000000000000604482015290519081900360640190fd5b60018101805483900390556002810154820234111561055557600281015460405133918402340380156108fc02916000818181858888f19350505050158015610553573d6000803e3d6000fd5b505b505050565b6000546001600160a01b031681565b6001545b90565b6060600080600080600060018054905087106105ca576040805162461bcd60e51b8152602060048201526014602482015273115d995b9d08191bd95cc81b9bdd08195e1a5cdd60621b604482015290519081900360640190fd5b6105d261089b565b600188815481106105df57fe5b600091825260209182902060408051600593909302909101805460026001821615610100026000190190911604601f8101859004909402830160e090810190925260c08301848152929390928492909184918401828280156106825780601f1061065757610100808354040283529160200191610682565b820191906000526020600020905b81548152906001019060200180831161066557829003601f168201915b50505091835250506001820154602080830191909152600283015460408084019190915260038401546001600160a01b03908116606080860191909152600490950154908116608080860191909152600160a01b90910460ff16151560a0948501528551928601519186015194860151908601519590930151919d909c50929a5090985091965090945092505050565b6000546001600160a01b0316331461075b5760405162461bcd60e51b815260040180806020018281038252603281526020018061097e6032913960400191505060405180910390fd5b61076361089b565b6040518060c0016040528088888080601f01602080910402602001604051908101604052809392919081815260200183838082843760009201829052509385525050506020808301899052604083018890526001600160a01b03808816606085015286166080840152600160a0909301839052825480840180855593909252835180519495509293859360059093027fb10e2d527612073b26eecdfd717e6a320cf44b4afac2b0732d9fcbe2b7fa0cf601926108239284929101906108e5565b50602082015160018201556040820151600282015560608201516003820180546001600160a01b039283166001600160a01b03199182161790915560808401516004909301805460a0909501511515600160a01b0260ff60a01b19949093169490911693909317919091161790555050505050505050565b6040518060c0016040528060608152602001600081526020016000815260200160006001600160a01b0316815260200160006001600160a01b031681526020016000151581525090565b828054600181600116156101000203166002900490600052602060002090601f016020900481019282601f1061092657805160ff1916838001178555610953565b82800160010185558215610953579182015b82811115610953578251825591602001919060010190610938565b5061095f929150610963565b5090565b61056d91905b8082111561095f576000815560010161096956fe4f6e6c792074686520636f6e7472616374206f776e65722063616e20706572666f726d2074686973206f7065726174696f6e4e756d626572206f66207469636b657473206d7573742062652067726561746572207468616e207a65726fa265627a7a72315820d5872ffca0aed21d887ac1befd038d8afb1152eeffc38c948836b6d2997e6b3064736f6c63430005100032",
  "source": "// SPDX-License-Identifier: MIT\npragma solidity ^0.5.0;\n\ncontract Hosting {\n    address public owner; // Address of the contract owner\n\n    struct Event {\n        string eventName;\n        uint256 numberOfTickets;\n        uint256 ticketPrice;\n        address xrplWallet;\n        address ethereumAddress;\n        bool isActive; // Indicates if the event is active or not\n    }\n\n    Event[] public events; // List of hosted events\n\n    constructor() public {\n        owner = msg.sender; // Set the contract owner to the deployer's address\n    }\n\n    modifier onlyOwner() {\n        require(msg.sender == owner, \"Only the contract owner can perform this operation\");\n        _;\n    }\n\n    // Function to host a new event\n    function createEvent(\n        string calldata _eventName,\n        uint256 _numberOfTickets,\n        uint256 _ticketPrice,\n        address _organiserXrplWallet,\n        address _organiserEthWallet\n    ) external onlyOwner {\n        Event memory newEvent = Event({\n            eventName: _eventName,\n            numberOfTickets: _numberOfTickets,\n            ticketPrice: _ticketPrice,\n            xrplWallet: _organiserXrplWallet,\n            ethereumAddress: _organiserEthWallet,\n            isActive: true\n        });\n\n        events.push(newEvent);\n    }\n\n    // Function to get the total number of hosted events\n    function getEventCount() external view returns (uint256) {\n        return events.length;\n    }\n\n    // Function to get details of a specific event\n    function getEventDetails(uint256 _eventId) external view returns (string memory, uint256, uint256, address, address, bool) {\n        require(_eventId < events.length, \"Event does not exist\");\n        Event memory eventToGet = events[_eventId];\n        return (eventToGet.eventName, eventToGet.numberOfTickets, eventToGet.ticketPrice, eventToGet.xrplWallet, eventToGet.ethereumAddress, eventToGet.isActive);\n    }\n\n    // Function to sell tickets for a specific event\n    function sellTickets(uint256 _eventId, uint256 _numberOfTickets) external payable {\n        require(_eventId < events.length, \"Event does not exist\");\n        Event storage eventToSell = events[_eventId];\n        require(eventToSell.isActive, \"Event is not active\");\n        require(_numberOfTickets > 0, \"Number of tickets must be greater than zero\");\n        require(_numberOfTickets <= eventToSell.numberOfTickets, \"Not enough tickets available\");\n        require(msg.value == _numberOfTickets * eventToSell.ticketPrice, \"Incorrect payment amount\");\n\n        // Reduce the available tickets\n        eventToSell.numberOfTickets -= _numberOfTickets;\n\n        // Refund any excess payment\n        if (msg.value > _numberOfTickets * eventToSell.ticketPrice) {\n            address(msg.sender).transfer(msg.value - _numberOfTickets * eventToSell.ticketPrice);\n        }\n    }\n}\n",
  "sourcePath": "/Users/mohammedfaiz/Desktop/Coding Stuff/Blockchain/SwiftPass/backend/smart_contracts/contracts/Hosting.sol",
  "compiler": {
    "name": "solc",
    "version": "0.5.16+commit.9c3226ce.Emscripten.clang"
  },
  "schemaVersion": "3.4.16",
  "updatedAt": "2024-01-09T15:29:08.065Z",
  "devdoc": {
    "methods": {}
  },
  "userdoc": {
    "methods": {}
  }
}