{
  "contractName": "Signup",
  "abi": [
    {
      "constant": true,
      "inputs": [
        {
          "internalType": "address",
          "name": "",
          "type": "address"
        }
      ],
      "name": "users",
      "outputs": [
        {
          "internalType": "string",
          "name": "xrplWalletAddress",
          "type": "string"
        },
        {
          "internalType": "bool",
          "name": "isRegistered",
          "type": "bool"
        }
      ],
      "payable": false,
      "stateMutability": "view",
      "type": "function"
    },
    {
      "constant": false,
      "inputs": [
        {
          "internalType": "string",
          "name": "xrplWalletAddress",
          "type": "string"
        }
      ],
      "name": "registerUser",
      "outputs": [],
      "payable": false,
      "stateMutability": "nonpayable",
      "type": "function"
    },
    {
      "constant": true,
      "inputs": [
        {
          "internalType": "address",
          "name": "userAddress",
          "type": "address"
        }
      ],
      "name": "isUserRegistered",
      "outputs": [
        {
          "internalType": "bool",
          "name": "",
          "type": "bool"
        }
      ],
      "payable": false,
      "stateMutability": "view",
      "type": "function"
    }
  ],
  "bytecode": "0x608060405234801561001057600080fd5b50610429806100206000396000f3fe608060405234801561001057600080fd5b50600436106100415760003560e01c8063163f752214610046578063704f1b9414610080578063a87430ba14610128575b600080fd5b61006c6004803603602081101561005c57600080fd5b50356001600160a01b03166101d1565b604080519115158252519081900360200190f35b6101266004803603602081101561009657600080fd5b8101906020810181356401000000008111156100b157600080fd5b8201836020820111156100c357600080fd5b803590602001918460018302840111640100000000831117156100e557600080fd5b91908080601f0160208091040260200160405190810160405280939291908181526020018383808284376000920191909152509295506101f2945050505050565b005b61014e6004803603602081101561013e57600080fd5b50356001600160a01b03166102b2565b604051808060200183151515158152602001828103825284818151815260200191508051906020019080838360005b8381101561019557818101518382015260200161017d565b50505050905090810190601f1680156101c25780820380516001836020036101000a031916815260200191505b50935050505060405180910390f35b6001600160a01b031660009081526020819052604090206001015460ff1690565b3360009081526020819052604090206001015460ff161561025a576040805162461bcd60e51b815260206004820152601860248201527f5573657220616c726561647920726567697374657265642e0000000000000000604482015290519081900360640190fd5b60408051808201825282815260016020808301919091523360009081528082529290922081518051929391926102939284920190610359565b50602091909101516001909101805460ff191691151591909117905550565b6000602081815291815260409081902080548251601f6002600019610100600186161502019093169290920491820185900485028101850190935280835290928391908301828280156103465780601f1061031b57610100808354040283529160200191610346565b820191906000526020600020905b81548152906001019060200180831161032957829003601f168201915b5050506001909301549192505060ff1682565b828054600181600116156101000203166002900490600052602060002090601f016020900481019282601f1061039a57805160ff19168380011785556103c7565b828001600101855582156103c7579182015b828111156103c75782518255916020019190600101906103ac565b506103d39291506103d7565b5090565b6103f191905b808211156103d357600081556001016103dd565b9056fea265627a7a72315820fba60b5a66a3126b800b6660c219b72a5f072603104ec83022fbb6a23354d7bb64736f6c63430005100032",
  "source": "// SPDX-License-Identifier: MIT\npragma solidity ^0.5.0;\n\ncontract Signup {\n    struct User {\n        string xrplWalletAddress;\n        bool isRegistered;\n//        bool isOrganiser;\n    }\n\n    mapping(address => User) public users;\n\n    // Function to register a new user\n    function registerUser(string memory xrplWalletAddress) public {\n        require(!users[msg.sender].isRegistered, \"User already registered.\");\n        users[msg.sender] = User(xrplWalletAddress, true);\n    }\n\n    // Function to check if a user is registered\n    function isUserRegistered(address userAddress) public view returns (bool) {\n        return users[userAddress].isRegistered;\n    }\n}\n",
  "sourcePath": "/Users/mohammedfaiz/Desktop/Coding Stuff/Blockchain/SwiftPass/backend/smart_contracts/contracts/Signup.sol",
  "compiler": {
    "name": "solc",
    "version": "0.5.16+commit.9c3226ce.Emscripten.clang"
  },
  "schemaVersion": "3.4.16",
  "updatedAt": "2024-01-09T15:11:15.239Z",
  "networkType": "ethereum",
  "devdoc": {
    "methods": {}
  },
  "userdoc": {
    "methods": {}
  }
}