{
  "contractName": "Ticketing",
  "abi": [
    {
      "inputs": [
        {
          "internalType": "uint256",
          "name": "_price",
          "type": "uint256"
        }
      ],
      "payable": false,
      "stateMutability": "nonpayable",
      "type": "constructor"
    },
    {
      "anonymous": false,
      "inputs": [
        {
          "indexed": true,
          "internalType": "address",
          "name": "buyer",
          "type": "address"
        },
        {
          "indexed": false,
          "internalType": "uint256",
          "name": "seatNumber",
          "type": "uint256"
        },
        {
          "indexed": false,
          "internalType": "uint256",
          "name": "quantity",
          "type": "uint256"
        }
      ],
      "name": "TicketPurchased",
      "type": "event"
    },
    {
      "constant": true,
      "inputs": [],
      "name": "maxQuantity",
      "outputs": [
        {
          "internalType": "uint256",
          "name": "",
          "type": "uint256"
        }
      ],
      "payable": false,
      "stateMutability": "view",
      "type": "function"
    },
    {
      "constant": true,
      "inputs": [],
      "name": "owner",
      "outputs": [
        {
          "internalType": "address",
          "name": "",
          "type": "address"
        }
      ],
      "payable": false,
      "stateMutability": "view",
      "type": "function"
    },
    {
      "constant": true,
      "inputs": [
        {
          "internalType": "address",
          "name": "",
          "type": "address"
        }
      ],
      "name": "ownerSeatCount",
      "outputs": [
        {
          "internalType": "uint256",
          "name": "",
          "type": "uint256"
        }
      ],
      "payable": false,
      "stateMutability": "view",
      "type": "function"
    },
    {
      "constant": true,
      "inputs": [],
      "name": "price",
      "outputs": [
        {
          "internalType": "uint256",
          "name": "",
          "type": "uint256"
        }
      ],
      "payable": false,
      "stateMutability": "view",
      "type": "function"
    },
    {
      "constant": true,
      "inputs": [
        {
          "internalType": "uint256",
          "name": "",
          "type": "uint256"
        }
      ],
      "name": "seatToOwner",
      "outputs": [
        {
          "internalType": "address",
          "name": "",
          "type": "address"
        }
      ],
      "payable": false,
      "stateMutability": "view",
      "type": "function"
    },
    {
      "constant": false,
      "inputs": [
        {
          "internalType": "uint256[]",
          "name": "seatNumbers",
          "type": "uint256[]"
        }
      ],
      "name": "purchaseTickets",
      "outputs": [],
      "payable": true,
      "stateMutability": "payable",
      "type": "function"
    },
    {
      "constant": false,
      "inputs": [
        {
          "internalType": "uint256",
          "name": "seatNumber",
          "type": "uint256"
        }
      ],
      "name": "refundTicket",
      "outputs": [],
      "payable": false,
      "stateMutability": "nonpayable",
      "type": "function"
    }
  ],
  "bytecode": "0x6080604052600560045534801561001557600080fd5b506040516105653803806105658339818101604052602081101561003857600080fd5b5051600080546001600160a01b031916331790556003556105078061005e6000396000f3fe6080604052600436106100705760003560e01c80638da5cb5b1161004e5780638da5cb5b14610189578063a035b1fe146101ba578063dbad962d146101cf578063e640cf7d146101f957610070565b80631ec8f9ba1461007557806366a107b51461011a578063757741001461015f575b600080fd5b6101186004803603602081101561008b57600080fd5b8101906020810181356401000000008111156100a657600080fd5b8201836020820111156100b857600080fd5b803590602001918460208302840111640100000000831117156100da57600080fd5b91908080602002602001604051908101604052809392919081815260200183836020028082843760009201919091525092955061020e945050505050565b005b34801561012657600080fd5b5061014d6004803603602081101561013d57600080fd5b50356001600160a01b03166103c9565b60408051918252519081900360200190f35b34801561016b57600080fd5b506101186004803603602081101561018257600080fd5b50356103db565b34801561019557600080fd5b5061019e61049c565b604080516001600160a01b039092168252519081900360200190f35b3480156101c657600080fd5b5061014d6104ab565b3480156101db57600080fd5b5061019e600480360360208110156101f257600080fd5b50356104b1565b34801561020557600080fd5b5061014d6104cc565b60045481511115610266576040805162461bcd60e51b815260206004820152601c60248201527f45786365656473206d6178696d756d207469636b6574206c696d697400000000604482015290519081900360640190fd5b8051600354023481146102c0576040805162461bcd60e51b815260206004820152601860248201527f496e636f7272656374207061796d656e7420616d6f756e740000000000000000604482015290519081900360640190fd5b60005b82518110156103ae5760008382815181106102da57fe5b602090810291909101810151600081815260019092526040909120549091506001600160a01b031615610349576040805162461bcd60e51b815260206004820152601260248201527129b2b0ba1030b63932b0b23c903a30b5b2b760711b604482015290519081900360640190fd5b60008181526001602090815260409182902080546001600160a01b031916339081179091558651835185815292830152825190927f2a91574e12ad96234e84923e146b0946ecfb871cd8d5534dc1fdcbe87a7c01b3928290030190a2506001016102c3565b50505133600090815260026020526040902080549091019055565b60026020526000908152604090205481565b6000818152600160205260409020546001600160a01b03163314610439576040805162461bcd60e51b815260206004820152601060248201526f2737ba103a34b1b5b2ba1037bbb732b960811b604482015290519081900360640190fd5b600081815260016020908152604080832080546001600160a01b031916905533808452600290925280832080546000190190556003549051919281156108fc029290818181858888f19350505050158015610498573d6000803e3d6000fd5b5050565b6000546001600160a01b031681565b60035481565b6001602052600090815260409020546001600160a01b031681565b6004548156fea265627a7a72315820d2987c272b6d6d7afb6a7b44a51027ba570308c59a5dc3bb6fdd4529b161b80364736f6c63430005100032",
  "source": "pragma solidity ^0.5.0;\n\ncontract Ticketing {\n    address public owner;\n    mapping(uint => address) public seatToOwner;\n    mapping(address => uint) public ownerSeatCount;\n    uint public price;\n    uint public maxQuantity = 5; // Maximum number of tickets a user can buy\n\n    event TicketPurchased(address indexed buyer, uint seatNumber, uint quantity);\n\n    constructor(uint _price) public {\n        owner = msg.sender;\n        price = _price;\n    }\n\n    function purchaseTickets(uint[] memory seatNumbers) public payable {\n        require(seatNumbers.length <= maxQuantity, \"Exceeds maximum ticket limit\");\n        uint totalCost = price * seatNumbers.length;\n        require(msg.value == totalCost, \"Incorrect payment amount\");\n\n        for(uint i = 0; i < seatNumbers.length; i++) {\n            uint seatNumber = seatNumbers[i];\n            require(seatToOwner[seatNumber] == address(0), \"Seat already taken\"); // Checks if that specific seat is allotted to someone else\n            seatToOwner[seatNumber] = msg.sender; // Assigns the seat to the buyer\n            emit TicketPurchased(msg.sender, seatNumber, seatNumbers.length);\n        }\n        ownerSeatCount[msg.sender] += seatNumbers.length;\n    }\n\n    function refundTicket(uint seatNumber) public {\n        require(seatToOwner[seatNumber] == msg.sender, \"Not ticket owner\");\n        seatToOwner[seatNumber] = address(0);\n        ownerSeatCount[msg.sender]--;\n        address(msg.sender).transfer(price);\n    }\n}\n",
  "sourcePath": "/Users/mohammedfaiz/Desktop/Coding Stuff/Blockchain/SwiftPass/backend/smart_contracts/contracts/Ticketing.sol",
  "compiler": {
    "name": "solc",
    "version": "0.5.16+commit.9c3226ce.Emscripten.clang"
  },
  "schemaVersion": "3.4.16",
  "updatedAt": "2024-01-10T10:09:00.064Z",
  "networkType": "ethereum",
  "devdoc": {
    "methods": {}
  },
  "userdoc": {
    "methods": {}
  }
}