{
  "contractName": "TicketingContract",
  "abi": [
    {
      "inputs": [],
      "payable": false,
      "stateMutability": "nonpayable",
      "type": "constructor"
    },
    {
      "anonymous": false,
      "inputs": [
        {
          "indexed": true,
          "internalType": "address",
          "name": "organiser",
          "type": "address"
        },
        {
          "indexed": false,
          "internalType": "uint256",
          "name": "ticketPrice",
          "type": "uint256"
        },
        {
          "indexed": false,
          "internalType": "uint256",
          "name": "maxQuantity",
          "type": "uint256"
        },
        {
          "indexed": false,
          "internalType": "uint256",
          "name": "availableTickets",
          "type": "uint256"
        }
      ],
      "name": "EventHosted",
      "type": "event"
    },
    {
      "anonymous": false,
      "inputs": [
        {
          "indexed": true,
          "internalType": "address",
          "name": "buyer",
          "type": "address"
        },
        {
          "indexed": false,
          "internalType": "uint256",
          "name": "quantity",
          "type": "uint256"
        }
      ],
      "name": "TicketPurchased",
      "type": "event"
    },
    {
      "constant": true,
      "inputs": [
        {
          "internalType": "address",
          "name": "",
          "type": "address"
        }
      ],
      "name": "events",
      "outputs": [
        {
          "internalType": "address",
          "name": "organiser",
          "type": "address"
        },
        {
          "internalType": "uint256",
          "name": "ticketPrice",
          "type": "uint256"
        },
        {
          "internalType": "uint256",
          "name": "maxQuantity",
          "type": "uint256"
        },
        {
          "internalType": "uint256",
          "name": "availableTickets",
          "type": "uint256"
        }
      ],
      "payable": false,
      "stateMutability": "view",
      "type": "function"
    },
    {
      "constant": true,
      "inputs": [],
      "name": "owner",
      "outputs": [
        {
          "internalType": "address",
          "name": "",
          "type": "address"
        }
      ],
      "payable": false,
      "stateMutability": "view",
      "type": "function"
    },
    {
      "constant": false,
      "inputs": [
        {
          "internalType": "uint256",
          "name": "_ticketPrice",
          "type": "uint256"
        },
        {
          "internalType": "uint256",
          "name": "_maxQuantity",
          "type": "uint256"
        },
        {
          "internalType": "uint256",
          "name": "_availableTickets",
          "type": "uint256"
        }
      ],
      "name": "hostEvent",
      "outputs": [],
      "payable": false,
      "stateMutability": "nonpayable",
      "type": "function"
    },
    {
      "constant": false,
      "inputs": [
        {
          "internalType": "uint256",
          "name": "_quantity",
          "type": "uint256"
        }
      ],
      "name": "purchaseTickets",
      "outputs": [],
      "payable": true,
      "stateMutability": "payable",
      "type": "function"
    },
    {
      "constant": false,
      "inputs": [
        {
          "internalType": "uint256",
          "name": "_quantity",
          "type": "uint256"
        }
      ],
      "name": "refundTickets",
      "outputs": [],
      "payable": false,
      "stateMutability": "nonpayable",
      "type": "function"
    }
  ],
  "bytecode": "0x608060405234801561001057600080fd5b50600080546001600160a01b03191633179055610670806100326000396000f3fe60806040526004361061004a5760003560e01c80633194bfe11461004f578063773dd66c146100b25780637e5a815a146100de5780638da5cb5b14610114578063a127760014610145575b600080fd5b34801561005b57600080fd5b506100826004803603602081101561007257600080fd5b50356001600160a01b0316610162565b604080516001600160a01b0390951685526020850193909352838301919091526060830152519081900360800190f35b3480156100be57600080fd5b506100dc600480360360208110156100d557600080fd5b5035610196565b005b3480156100ea57600080fd5b506100dc6004803603606081101561010157600080fd5b50803590602081013590604001356102b9565b34801561012057600080fd5b506101296103d2565b604080516001600160a01b039092168252519081900360200190f35b6100dc6004803603602081101561015b57600080fd5b50356103e1565b600160208190526000918252604090912080549181015460028201546003909201546001600160a01b039093169290919084565b33600090815260016020526040902080546001600160a01b03166101f8576040805162461bcd60e51b8152602060048201526014602482015273115d995b9d08191bd95cc81b9bdd08195e1a5cdd60621b604482015290519081900360640190fd5b33600090815260048201602052604090205482111561025e576040805162461bcd60e51b815260206004820152601c60248201527f4e6f7420656e6f756768207469636b65747320746f20726566756e6400000000604482015290519081900360640190fd5b6001810154336000818152600484016020526040808220805487900390556003850180548790039055519285029283156108fc0291849190818181858888f193505050501580156102b3573d6000803e3d6000fd5b50505050565b6000546001600160a01b031633146103025760405162461bcd60e51b81526004018080602001828103825260298152602001806105f16029913960400191505060405180910390fd5b33600090815260016020526040902080546001600160a01b031615610365576040805162461bcd60e51b8152602060048201526014602482015273115d995b9d08185b1c9958591e481a1bdcdd195960621b604482015290519081900360640190fd5b80546001600160a01b031916339081178255600182018590556002820184905560038201839055604080518681526020810186905280820185905290517fb62e3a90f750217f0a259fec512191e99e50a83b3cf27c4ec649a381d646eb459181900360600190a250505050565b6000546001600160a01b031681565b33600090815260016020526040902080546001600160a01b0316610443576040805162461bcd60e51b8152602060048201526014602482015273115d995b9d08191bd95cc81b9bdd08195e1a5cdd60621b604482015290519081900360640190fd5b600082116104825760405162461bcd60e51b815260040180806020018281038252602281526020018061061a6022913960400191505060405180910390fd5b80600201548211156104db576040805162461bcd60e51b815260206004820152601c60248201527f45786365656473206d6178696d756d207469636b6574206c696d697400000000604482015290519081900360640190fd5b806002015482826003015401111561053a576040805162461bcd60e51b815260206004820152601c60248201527f4e6f7420656e6f756768207469636b65747320617661696c61626c6500000000604482015290519081900360640190fd5b60018101548202348114610595576040805162461bcd60e51b815260206004820152601860248201527f496e636f7272656374207061796d656e7420616d6f756e740000000000000000604482015290519081900360640190fd5b33600081815260048401602090815260409182902080548701905560038501805487019055815186815291517f0668f5b446eb814fe35b3206f43f14bd8567ba04ddaf7a3ee56516929ab22ccb9281900390910190a250505056fe4f6e6c7920746865206f776e65722063616e20706572666f726d2074686973206f7065726174696f6e5175616e74697479206d7573742062652067726561746572207468616e207a65726fa265627a7a72315820c20fd6315c5c3ad84ac03ebfb2442904774dec9d1b6c102b750342ab1673ce5e64736f6c63430005100032",
  "source": "pragma solidity ^0.5.0;\n\ncontract TicketingContract {\n    address public owner;\n\n    struct Event {\n        address organiser;\n        uint ticketPrice;\n        uint maxQuantity;\n        uint availableTickets;\n        mapping(address => uint) ticketsPurchased;\n    }\n\n    mapping(address => Event) public events;\n\n    event EventHosted(address indexed organiser, uint ticketPrice, uint maxQuantity, uint availableTickets);\n    event TicketPurchased(address indexed buyer, uint quantity);\n\n    constructor() public {\n        owner = msg.sender; // The deployer (organizer) sets the initial organizer address\n    }\n\n    modifier onlyOwner() {\n        require(msg.sender == owner, \"Only the owner can perform this operation\");\n        _;\n    }\n\n    function hostEvent(uint _ticketPrice, uint _maxQuantity, uint _availableTickets) public onlyOwner {\n        // Organizer can set the number of tickets\n        // and the ticket price when hosting the event.\n        Event storage newEvent = events[msg.sender];\n        require(newEvent.organiser == address(0), \"Event already hosted\");\n        newEvent.organiser = msg.sender;\n        newEvent.ticketPrice = _ticketPrice;\n        newEvent.maxQuantity = _maxQuantity;\n        newEvent.availableTickets = _availableTickets;\n        emit EventHosted(msg.sender, _ticketPrice, _maxQuantity, _availableTickets);\n    }\n\n    function purchaseTickets(uint _quantity) public payable {\n        Event storage eventToPurchase = events[msg.sender];\n        require(eventToPurchase.organiser != address(0), \"Event does not exist\");\n        require(_quantity > 0, \"Quantity must be greater than zero\");\n        require(_quantity <= eventToPurchase.maxQuantity, \"Exceeds maximum ticket limit\");\n        require(eventToPurchase.availableTickets + _quantity <= eventToPurchase.maxQuantity, \"Not enough tickets available\");\n        uint totalCost = eventToPurchase.ticketPrice * _quantity;\n        require(msg.value == totalCost, \"Incorrect payment amount\");\n\n        eventToPurchase.ticketsPurchased[msg.sender] += _quantity;\n        eventToPurchase.availableTickets += _quantity;\n\n        emit TicketPurchased(msg.sender, _quantity);\n    }\n\n    function refundTickets(uint _quantity) public {\n        Event storage eventToRefund = events[msg.sender];\n        require(eventToRefund.organiser != address(0), \"Event does not exist\");\n        require(eventToRefund.ticketsPurchased[msg.sender] >= _quantity, \"Not enough tickets to refund\");\n\n        uint refundAmount = eventToRefund.ticketPrice * _quantity;\n\n        eventToRefund.ticketsPurchased[msg.sender] -= _quantity;\n        eventToRefund.availableTickets -= _quantity;\n\n        msg.sender.transfer(refundAmount);\n    }\n}\n",
  "sourcePath": "/Users/mohammedfaiz/Desktop/Coding Stuff/Blockchain/SwiftPass/backend/smart_contracts/contracts/TicketingContract.sol",
  "compiler": {
    "name": "solc",
    "version": "0.5.16+commit.9c3226ce.Emscripten.clang"
  },
  "schemaVersion": "3.4.16",
  "updatedAt": "2024-01-10T10:09:00.066Z",
  "networkType": "ethereum",
  "devdoc": {
    "methods": {}
  },
  "userdoc": {
    "methods": {}
  }
}